:020000040800F2
:10000000C80B01204102000891260008292200089F
:1000100029230008C5170008D1340008000000009B
:100020000000000000000000000000006D28000833
:10003000CF1900080000000021270008ED2C00085F
:100040005B0200085B0200085B0200085B0200081C
:100050005B0200085B0200085B0200085B0200080C
:100060005B0200085B020008E11D00085B0200085B
:100070005B0200085B0200085B0200085B020008EC
:100080005B0200085B0200085B0200085B020008DC
:100090005B0200085B0200085B020008091E000802
:1000A0005B0200085B0200085B0200085B020008BC
:1000B0005B020008592D00085B0200085B02000883
:1000C0005B0200085B0200085B0200085B0200089C
:1000D0005B0200089D3000082531000865310008EA
:1000E0005B0200085B0200085B0200085B0200087C
:1000F0005B0200087D2D00085B0200085B0200081F
:100100005B0200085B0200085B0200085B0200085B
:100110005B0200085B0200085B0200085B0200084B
:10012000C91700085B0200085B0200085B020008B8
:100130005B0200085B0200085B0200085B0200082B
:100140005B0200085B0200085B0200085B0200081B
:100150005B0200085B0200085B0200085B0200080B
:100160005B0200085B0200085B0200085B020008FB
:100170005B0200085B0200085B0200085B020008EB
:100180005B0200085B02000800F002F800F048F88B
:100190000AA090E8000C82448344AAF10107DA45E2
:1001A00001D100F03DF8AFF2090EBAE80F0013F0EC
:1001B000010F18BFFB1A43F00103184764D9000070
:1001C00084D90000103A24BF78C878C1FAD8520701
:1001D00024BF30C830C144BF04680C6070470000C1
:1001E0000023002400250026103A28BF78C1FBD840
:1001F000520728BF30C148BF0B607047642900F028
:100200002F86732900F06387002070471FB505F023
:100210002AF89DE8030000F091FE1FBD10B510BD47
:1002200000F09AFF1146FFF7F1FF04F0CBF800F061
:10023000B8FF03B4FFF7F2FF03BC03F049FE000070
:100240000948804709480047FEE7FEE7FEE7FEE76A
:10025000FEE7FEE7FEE7FEE7FEE7FEE704480549A6
:10026000054A064B70470000F12C00088901000880
:10027000C8050120C80B0120C8070120C8070120BC
:100280009FED3A0A5FEA920C53D000BFF0EC010AEE
:100290000B1DB0EC011A60EEA00A41EE010AF5EE6A
:1002A000C00AF1EE10FAC6BFB1EEE01A81ED001AF5
:1002B00081ED000AF0EC010A191DB0EC011A60EEA4
:1002C000A00A41EE010AF5EEC00AF1EE10FAC6BF2F
:1002D000B1EEE01A83ED001A83ED000AF0EC010A9A
:1002E0000B1DB0EC011A60EEA00A41EE010AF5EE1A
:1002F000C00AF1EE10FAC6BFB1EEE01A81ED001AA5
:1003000081ED000AF0EC010A191DB0EC011A60EE53
:10031000A00A41EE010AF5EEC00AF1EE10FAC6BFDE
:10032000B1EEE01A83ED001A83ED000ABCF1010C76
:10033000ACD112F0030208BF704700BFF0EC010A15
:100340000B46B0EC011A091D60EEA00A41EE010A4D
:10035000F5EEC00AF1EE10FAC6BFB1EEE01A83ED79
:10036000001A83ED000A521EE8D170470000000019
:100370002DE9F04F8D082DED048B82B00026AC46A0
:100380003446019506EB0C0909EB0C0A0AEB0C0844
:1003900000EBC60700EBC90900EBCA0A00EBC8086E
:1003A00097ED003AD9ED003ADAED006A98ED006A6F
:1003B00097ED010ADAED014A33EE265A73EE860A0A
:1003C00099ED014AD8ED015A30EE241A4FEA440B58
:1003D00002EBCB0E70EE644A74EE251A35EE200A5D
:1003E0009EED002ADEED012A87ED000A31EE210A9A
:1003F00073EEC63A34EE656A87ED010A35EE600A9F
:1004000033EE663A71EE610A02EBC40774EEE35A0A
:1004100033EE064A97ED005A73EEA41AD7ED014A5F
:1004200033EE461A24EE056A0BEB040725EE855AD7
:1004300002EBC70760EE026A65EEA45A24EE244A76
:1004400097ED003AD7ED013A60EEA24A20EE822AFB
:1004500021EE037A20EE220A61EEA30A21EE833A0E
:1004600061EE231A76EEA42A32EE400A36EE251A01
:1004700075EE443AC9ED002A77EE200A89ED010AAB
:1004800073EE611A8AED001ACAED013AC8ED000A4E
:10049000761CC8ED011A1C446D1E7FF473AF4FF635
:1004A000FF7404EA830B019B0093042B7DD96646FD
:1004B0004FEA9C0C4FF00008C146ACF1010E00BFA2
:1004C0004FEA480303EB080402EBC30302EBC80541
:1004D00093ED003AD3ED014A02EBC40395ED005AC7
:1004E000D5ED015A93ED006A93ED014AD8444B468D
:1004F00003EB0C0404EB0C0707EB0C0A00EBC30541
:1005000000EBC70700EBC40400EBCA0AD5ED003AC4
:1005100097ED007AD4ED008A9AED008A95ED010AF4
:10052000D4ED010AD7ED017ADAED011A33EEC72ACC
:1005300070EE676A70EEE12A33EE877A78EE883AD9
:1005400030EE270A38EEC81A70EEA11A72EE227A3F
:1005500032EE622A77EE232A70EE618A36EEC18A85
:1005600030EE210A77EE630A31EE261AC5ED002A35
:1005700085ED010A28EE050A67EE856A28EE258AD0
:1005800020EE837A20EEA49A68EE831A62EE062AA1
:1005900061EE063A62EE040A67EEA57A68EEA48A76
:1005A00021EE041A36EE882A00E027E077EE286A6A
:1005B00071EEC91A30EE670AC4ED006A32EE811A94
:1005C000C4ED011A73EEE00A87ED002A87ED010AF7
:1005D0008AED001A3344CAED010A8B4288D309F12F
:1005E0000109F1457FF66CAF4FF6FF7303EA8B0B01
:1005F000009B9B080093042B3FF659AFDDF80410D5
:1006000090ED000AD0ED042A90ED025A90ED031A05
:10061000D0ED064A90ED073A30EE222AD0ED011ACD
:10062000D0ED050A75EE243A31EE034A30EE620A47
:1006300071EEA02A31EE431A32EE233A71EEE00A4F
:1006400075EE641A72EE844A32EE632A72EEC43A90
:1006500080ED003A70EE012AC0ED014A30EEE14A29
:1006600080ED022A30EE410AC0ED033A71EEA00A95
:10067000C0ED042A80ED054A80ED060AC0ED070AA8
:100680002030491EBCD102B0BDEC048BBDE8F08F18
:100690002DE9F04F4FEA910A2DED048B82B0002432
:1006A000D446A046CDF804A004EB0C0505EB0C06DF
:1006B00006EB0C0900EBC40700EBC60600EBC50512
:1006C00000EBC909D7ED011AD6ED012A95ED006AB4
:1006D000D9ED006AD7ED005A96ED007AD5ED010A02
:1006E00099ED011A36EE262A71EEA23A35EE873AD6
:1006F00071EEE21A30EE815A70EEC12A4FEA480BD1
:1007000002EBCB0E73EE020A9EED004ADEED014ACB
:10071000C7ED000A73EE850A36EE666A75EEC75AB3
:10072000C7ED010A33EE422A02EBC80731EE861A02
:1007300033EEC53A71EEC61A97ED006A97ED015A8D
:1007400075EEE20A0BEB080702EBC70775EEA22A6B
:10075000D7ED005AD7ED013A60EE866A22EE047AB0
:1007600062EEA57A23EE044A21EE066A61EEA55AEE
:1007700060EE850A23EE243A22EE242A21EE051AA1
:1007800061EEA31A62EEA32A76EE203A37EE433AE0
:1007900074EE020A36EEC11A85ED003A77EEE11AE0
:1007A000C5ED010A35EEA22A86ED001AC6ED013A22
:1007B000C9ED001A641C89ED012A9844BAF1010AB6
:1007C0007FF472AF4FF6FF7404EA830B019B009332
:1007D000042B7CD966464FEA9C0C4FF00008C146BA
:1007E000ACF1010E4FEA480303EB080402EBC3032C
:1007F00002EBC805D3ED003A93ED017A02EBC40396
:10080000D5ED006AD5ED015AD3ED004A93ED013ADA
:10081000D8444B4603EB0C0404EB0C0707EB0C0A23
:1008200000EBC30500EBC70700EBC40400EBCA0AEA
:1008300095ED012A97ED018A95ED001AD4ED008A15
:10084000D4ED017A97ED009ADAED001ADAED010A9B
:1008500032EE485A71EE492A38EEE14A32EE082A61
:1008600037EEA08A37EEE06A78EEA11A31EE091A67
:1008700075EE048A72EEC67A72EE862A71EE610A0D
:1008800031EE211A35EE444A32EE489A85ED001ACF
:1008900032EE081A28EEA66A27EEA65A68EEA58A56
:1008A00085ED011A20EEA31A69EE231A22EEA42A7E
:1008B00024EE248A67EEA57A29EE079A60EE870A6D
:1008C00024EE034A62EE832A35EE685A00E027E000
:1008D00036EE276A71EE497A31EEA01A72EE440ABA
:1008E000C4ED007A84ED011A78EE221A87ED005AE1
:1008F00087ED016ACAED000A3344CAED011A8B4242
:1009000088D309F10109F1457FF66CAF4FF6FF730B
:1009100003EA8B0B009B9B080093042B3FF65AAF16
:10092000DDF8041090ED003AD0ED044AD0ED032A32
:1009300090ED071A90ED024AD0ED061AD0ED013A7B
:10094000D0ED050A33EE242A72EE815A33EE643A72
:1009500034EE215A73EEA04A73EEE03A32EEC11A39
:1009600074EE610A32EE454A72EE052A74EEA51A5B
:1009700034EEE55A73EE414A33EEA02A33EE011A03
:1009800033EEE03A62EE805A61EE800A64EE003A9D
:1009900065EE002AC0ED005A64EE801AC0ED010A2F
:1009A00022EE002AC0ED023A21EE004AC0ED032AF1
:1009B00023EE001AC0ED041A80ED052A80ED064AE8
:1009C00080ED071A2030491EACD102B0BDEC048B7B
:1009D000BDE8F08F70B504460D4680782188A38964
:1009E000626801280ED02846FFF7C2FCE078012893
:1009F00018BF70BDE28921882846A368BDE8704011
:100A000000F066B894ED040A2846FFF741FEEDE7D2
:100A100010B40180234C446082704FF0000CC3700E
:100A2000B1F5807F20D004DC10292FD0402906D1D9
:100A300022E0B1F5806F0FD0B1F5805F04D04FF0A8
:100A4000FF3C10BC6046704701218181C18116497D
:100A50009FED160A816016E004218181C18114494D
:100A60009FED140A81600EE010218181C18112493D
:100A70009FED120A816006E040218181C181104909
:100A80009FED100A816080ED040ADAE74FF480716F
:100A90008181C1810C499FED0D0A816080ED040ABE
:100AA000CFE700007C5A00087A5200080000803925
:100AB000805200080000803A985200080000803BF5
:100AC000F85200080000803C785400080000803D87
:100AD0002DE9F0014E0801244FF0000C04EB510702
:100AE0006146A6F102082CE061452AD200EBCC0554
:100AF00000EBC104D5ED000A94ED000AC4ED000A34
:100B000085ED000AD5ED010A94ED010AC4ED010A54
:100B100085ED010ACC1900EBC4050CEB070400EBD2
:100B2000C40495ED000AD4ED000AC5ED000A84ED79
:100B3000000AD4ED010A95ED010AC5ED010A84ED24
:100B4000010A00EBC104B44400EBCC0C94ED020AA2
:100B5000DCED000A891CC4ED020A8CED000ADCED14
:100B6000010A94ED030AC4ED030A8CED010AB3F8FF
:100B700000C089B203EB42034145B5D9BDE8F0019D
:100B800070472DE9F00701254C0805EB51064FF0A1
:100B9000000C651E6146002D88BFA8462ED8BDE812
:100BA000F0077047614529D250F8315050F83C7039
:100BB00040F8317040F83C5000EBC10700EBCC0925
:100BC0007D68D9F804A0C7F804A0C9F804508D19AD
:100BD0000CEB060750F8359050F837A040F835A0D8
:100BE00040F8379000EBC50500EBC707D5F8049037
:100BF000D7F804A0C5F804A0C7F8049000EBC1051D
:100C0000A444AF6850F83C90C5F8089040F83C7098
:100C100000EBCC0CEF68DCF80490C5F80C90CCF835
:100C20000470B3F800C0891C03EB42034145B9D3FB
:100C3000BDE8F00770472DE9F00F01244D084FF093
:100C4000000C04EB5107012D9CBFBDE8F00F70476D
:100C5000014600EB870400264FEA550815E000BF67
:100C6000BCEB460F11D950F82CA0D1F80090C1F878
:100C700000A040F82C900CEB0709D4F800A050F825
:100C800029B0C4F800B040F829A0AC44D1F80490D1
:100C900050F82CA0C1F804A040F82C90B3F800C084
:100CA00008310834761C03EB4203B8F10108D7D1B0
:100CB000BDE8F00F704770B5064600F023F90568EF
:100CC00006F10B0020F00704B4429CBF002070BD69
:100CD0002B466A68BAB11068A04210D304F108012B
:100CE00088423CBF5068586007D351681019416072
:100CF0001168091B016058601460101D70BD134617
:100D00005268002AE7D12146284600F003F900285E
:100D1000DED170BD70B50446051F00F0F3F8006821
:100D2000002C14BF446870BD002C18BFAC423CBFFF
:100D300020466468F8D301680A18AA4218BF4560C3
:100D400003D12A6805461144016028684119A1426F
:100D50001CBF6C6070BD61686960216808442860D0
:100D600070BD00000FB4044910B503AA029800F04A
:100D7000B3F910BC5DF814FB480000200FB41CB59B
:100D8000074B06AA7B4469460090059800F075F968
:100D90000020694600F084F91CBC5DF814FB0000DB
:100DA000190300002DE9F0410E46044600202062A0
:100DB0002046E168884730B3252805D0D4E90121D1
:100DC0009047206A401CF2E7E168204600278847E8
:100DD000050018D0A5F14100192802D820354FF49C
:100DE00000673246294620462760FFF707FA40B1E0
:100DF000012804D0F61D26F007060836D8E7361D70
:100E0000D6E72846DAE7206ABDE8F08170B50C46DF
:100E10000546012A05D02878800600D5EA69002316
:100E200002E0012305E05B1C934202D2E05C002853
:100E3000F9D1A869E618C01AA861286A184428627E
:100E40002846AFF3008004E0D5E9012114F8010B36
:100E50009047B442F8D32846AFF3008070BD00003D
:100E60002DE9F0410646002410687529314616A583
:100E700010D0AFF30080002802DA404213A507E04B
:100E800031688A0701D512A502E0490704D511A5EA
:100E9000012401E0AFF3008000210A2206F12407BB
:100EA00009E0B0FBF2FCB0FBF2F302FB1C003030B7
:100EB00078541846491C0028F3D123462A46304668
:100EC000BDE8F04100F07BB8000000002D000000FC
:100ED0002B0000002000000030B505460B462A46D6
:100EE00013F8014B12F8010B08B1A042F8D01CB165
:100EF000002802D06D1CF1E7284630BD70477047CE
:100F000070470000004870476C050120704770472B
:100F10007047704738B504460A4600206946AFF36B
:100F20000080002808BF38BD02460099204600F026
:100F3000EDF8012038BD012000F006B9F8B5AFF397
:100F40000080054600200C46102000BF0646A81968
:100F5000A0420DD9324669460020AFF30080070059
:100F600008BF00F0F1F80098A04218BF0546C41968
:100F7000FFF7C8FF05600746F01D20F0070046197F
:100F8000284600F00AF8B44208BFF8BDA21B31465B
:100F90003868BDE8F84000F0B9B800210160C0E948
:100FA000011070471020704710B500F0ABF80068D2
:100FB00010BD10B5044600F0A5F8046010BD2DE981
:100FC000F0470D4699469246044600F12408016810
:100FD000880604D5E06921F01001216000E00120BD
:100FE000A84201DD471B00E00027A1697A1902EB46
:100FF0000900081AA0612078C00602D42046AFF389
:101000000080002608E0D4E901211AF80600904784
:10101000206A401C761C20624E45F4DB2078C00616
:101020000AD52046AFF3008006E0D4E90121302044
:101030009047206A401C2062381EA7F10107F4DCAB
:1010400007E0D4E9012118F805009047206A401C08
:101050002062281EA5F10105F3DC2046AFF30080D5
:101060002078000602D50220BDE8F0870120FBE7CA
:1010700001694A1C02610878704700B58FB0CDE95C
:1010800001310021059105497944CDE9031011464C
:101090006846FFF787FE0FB000BD0000E5FFFFFFC9
:1010A0000A6802F8010B0A60704710B5436913B172
:1010B000AFF3008001E0FFF7A9FE012010BD127818
:1010C00000F124010A7000224A700122EDE7116844
:1010D0004FF0FF32E9E70000074B70B50D467B4447
:1010E000FFF7CBFF0446284600F02AF810B14FF076
:1010F000FF3070BD204670BD73310000004870475E
:1011000064050120004870476405012003464068DB
:101110008C46002818BF88423CBF03464068F8D37D
:1011200018681844884207D00CF1030020F007002B
:10113000001D411A521A0146081D0A60FFF7EABD58
:10114000007B00F08000704710B500F039F8BDE872
:10115000104000F02FB870477546FFF7CFFFAE463E
:1011600005006946534620F00700854618B020B5B3
:10117000FFF774F8BDE820404FF000064FF000077D
:101180004FF000084FF0000B21F00701AC46ACE82F
:10119000C009ACE8C009ACE8C009ACE8C0098D469C
:1011A000704710B50446AFF300802046BDE81040FC
:1011B000FFF73FB8002801D002F08ABE7047000058
:1011C00010B5012805D0002103A000F021F801206E
:1011D00010BD09A1F8E7000053494752544D454D51
:1011E0003A204F7574206F662068656170206D65C8
:1011F0006D6F7279000000003A2048656170206DC3
:10120000656D6F727920636F7272757074656400BA
:1012100070B505460C460A2000E06D1C00F011F880
:1012200035B128780028F8D102E0641C00F009F8F4
:1012300014B120780028F8D1BDE870400A20AFF33F
:10124000008008B569468DF800000320ABBE08BDDC
:1012500021B1826842F00102826003E0826822F0DC
:1012600001028260704700000021084A1168084AA4
:101270001140D0E900231A4383681A43C3681A4314
:101280001143044AC2F804137047000004230140CC
:10129000E030FCFF0020014000B59DB00121504826
:1012A00001F040FA01214FF4E06001F05BFA3320D5
:1012B0001B9003208DF8700000208DF873001BA98F
:1012C000484800F00DFE00200C9047480D9047481C
:1012D0000E9000200F904FF47A6010900020119033
:1012E0004FF48060129040001390800014904011E1
:1012F00015904002169000201790012018900020B1
:1013000019901A900CA93A4800F02CFB002039499A
:10131000087038208DF82C0001208DF82D008DF8F4
:101320002E008DF82F000BA801F0B4F90122102136
:101330002F4800F0F9FA002001904FF4403002905D
:1013400000200390049001A8FFF78EFF0020059075
:1013500001208DF818008DF81900002007900990E1
:1013600001208DF8280005A91F484C3800F05CF8D2
:1013700005A9214800F058F802208DF8280005A999
:101380001948B43000F050F8012117484C3800F0EB
:1013900035F8072301220E2113484C3800F084F859
:1013A000072301220F211048B43000F07DF80723F5
:1013B00002220A210C48B43000F076F807230122FB
:1013C0000B210D4800F070F8012107484C3800F05F
:1013D00020F8012104484C38FFF73AFF1DB000BD4A
:1013E00004004000000802404C2001405C00002046
:1013F00010640240520000200022014021B18268A6
:1014000042F48072826003E0826822F4807282601B
:10141000704721B1826842F40072826003E0826802
:1014200022F400728260704730B50246002000232B
:101430005068104C20400D790C6844EA0524204384
:10144000506090680C4C2040D1E903542C438D68C7
:101450002C434D7944EA450420439060D06A20F43F
:1014600070000C7D641EE4B2234340EA0350D06256
:1014700030BD0000FFFEFFFCFDF7FFC038B108499A
:10148000096841F40051074AC2F8041306E0044910
:10149000096821F40051034AC2F8041370470000A0
:1014A0000423014000200140F0B504460D46002011
:1014B0000021092D11DDE068A5F10A0606EB4607BB
:1014C000072606FA07F18843A5F10A0606EB460649
:1014D00003FA06F10843E0600CE0206905EB4507DC
:1014E000072606FA07F1884305EB450603FA06F1DD
:1014F00008432061072A0FDA606B561E06EB860749
:101500001F2606FA07F18843561E06EB860605FAE3
:1015100006F10843606322E00D2A0FDA206BD61F24
:1015200006EB86071F2606FA07F18843D61F06EB4F
:10153000860605FA06F10843206310E0E06AA2F18E
:101540000D0606EB86071F2606FA07F18843A2F16F
:101550000D0606EB860605FA06F10843E062F0BDCB
:10156000816841F080418160704700001FB5002113
:101570001E48FFF76DFE1E48007800EB40001D4A34
:1015800002EB802100221C4800F018FA1B491A487F
:1015900000F019FA4FF4C061174800F016FA012064
:1015A000174908700020124908701620009000208A
:1015B00003904FF4804002904FF440300190684611
:1015C000FFF752FE00210948FFF723FF0120FFF734
:1015D00055FF01210548FFF73BFE01210948FFF7B0
:1015E00037FE01210848FFF733FE1FBD00200140F0
:1015F000180000205C000020106402400823014015
:1016000052000020002101400022014010B5044892
:10161000FFF7A6FF0121034800F048F910BD0000C4
:10162000002001401064024010B50021034800F082
:101630003DF900210248FFF70BFE10BD1064024087
:101640000020014010B59DE004214F4800F0B3FC9C
:1016500028B102214C4800F0AEFC00286FD10821CF
:10166000494800F0A8FCC0B100F0C0FD08E04748C0
:10167000007828B100F08CF800204449087010BDB3
:101680000421414800F097FC00287BD002213E480D
:1016900000F091FC002875D0E9E701213A4800F0FC
:1016A0008AFCC0B100F0CEFC08E03848007828B1D0
:1016B00000F06EF8002035490870E0E70421324858
:1016C00000F079FC00285DD002212F4800F073FC67
:1016D000002857D0E9E700F097FC08E02B48007895
:1016E00028B100F055F8002028490870C7E7082104
:1016F000254800F060FC0028F0D10121224800F0CC
:101700005AFC0028EAD108211F4800F054FCB8B167
:1017100000F06CFD08E01D48007828B100F038F8B2
:1017200000201A490870AAE70421174800F043FC7A
:1017300040B30221144800F03EFC18B3EBE716E07A
:1017400000F080FC08E01148007828B100F020F893
:1017500000200E49087092E704210B4800F02BFC92
:1017600080B10221084800F026FC58B1EBE700F0F8
:101770002FFC0648007828B100F00AF80020034941
:1017800008707CE760E70000000C02403400002095
:10179000012008490870084908700849086008498C
:1017A000C1F884020549083108600549C1F88C0276
:1017B0007047000036000020350000208082424241
:1017C0000080424200BFFEE710B52349234800F0E5
:1017D00079F800283BD02248007848B321480078A7
:1017E000401C2049087020480078072803D01E4874
:1017F0000078401C00E000201B49087000211748B9
:1018000000F054F81848007800EB4000174A02EB4B
:1018100080210022114800F0D1F801210F4800F08A
:1018200045F81048007808280ED1FFF7FDFE0BE0C0
:1018300000210F48FFF70CFD01210D48FFF708FDBF
:101840000021064800F032F801200A4908700249D8
:10185000024800F011F810BD208000101064024012
:101860005200002014000020180000205C0000201E
:1018700000200140000000200246094B9A4201D29C
:10188000084801E00648103801F000531BB1064B30
:101890000B40C36002E0044B0B40836070470000C4
:1018A00010640240006002407D0F7D0F21B102688C
:1018B00042F00102026003E0026822F001020260CD
:1018C0007047000070B50246002000240025124E2B
:1018D000B24201D2114B01E00F4B103B104E0E40B3
:1018E00036B11E2606EAD124166806EA040502E08F
:1018F000566906F0800501F000560EB15C6800E004
:101900001C68084E344004EA010616B10DB10120EE
:1019100000E0002070BD0000106402400060024042
:101920003C0F3C0F7D0F7D0F10B501F080034BB1D4
:1019300022B1436943F08003436103E0436923F02C
:101940008003436180290BD02AB1036801F01E0493
:101950002343036004E0036801F01E04A343036013
:1019600010BD000010B500220268134B1A40CC686D
:101970000B6823434C6923438C692343CC6923437D
:101980000C6A23434C6A23438C6A23434C6B2343E6
:101990008C6B23431A430260426922F00702D1E9AB
:1019A0000B3423431A4342610B6943604B688360E5
:1019B0008B68C36010BD00003F801CF00AB101615C
:1019C00000E0C160704781607047416070477047B8
:1019D00010B588B00446224607A16846FFF7CEF945
:1019E000C823002208A1684600F054F810B1012075
:1019F00008B010BD0020FBE741542B434950415033
:101A00003D222573220000004F4B000010B500243A
:101A10004FF480610B4800F0D9FA4FF47A7002F06D
:101A2000A5FA0BE0C823002207A108A000F032F8B5
:101A300000B110BD00F01EF9601CC4B20A2CF1DB2D
:101A400000BFF6E7000002404F4B00004154000089
:101A500070B5A0B004460D4616462B46224606A198
:101A600002A80096FFF78AF9C823002208A102A85D
:101A700000F010F820B070BD41542B435753415033
:101A80003D222573222C222573222C312C25640023
:101A90004F4B00002DE9F04106460C4615461F4607
:101AA0002548B0F800046FF30E002349A1F80004A4
:101AB000324622A1234801F088FC1CB915B9012047
:101AC000BDE8F081B8B202F051FA00201A49B1F82D
:101AD0000014C1F30E01184A505411461AA0FFF722
:101AE00041F9B4B1ADB121461348FFF7F5F908B19A
:101AF000012000E0002040B929460F48FFF7ECF92B
:101B000008B1012000E0002008B10120D8E7002042
:101B1000D6E744B121460848FFF7DEF908B10120B5
:101B2000CEE70020CCE729460348FFF7D5F908B1F6
:101B30000120C5E70020C3E73001012025730D0A0D
:101B40000000000000480040257300001CB5012182
:101B5000084600F0E7FD4FF40070009001208DF87A
:101B6000040002208DF8050000208DF806000220F8
:101B70008DF807006946094800F0B2F901210846CE
:101B800000F0D0FD4FF48060009001208DF8070038
:101B90006946024800F0A4F91CBD000000000240A4
:101BA00010B5FFF7D3FF00F0BDF84FF48061044893
:101BB00000F00CFA4FF40071014800F005FA10BD76
:101BC0000000024010B586B004460CB1012000E0D0
:101BD0000020024605A101A8FFF7D0F8C823002283
:101BE00006A101A8FFF756FF06B010BD41542B43D4
:101BF00049504D55583D2564000000004F4B0000F2
:101C000010B5044624B1012C09D0022C15D10DE0E9
:101C1000C8230BA20DA10EA0FFF73CFF10BDC823E7
:101C200007A20AA10DA0FFF735FFF7E7C82304A21A
:101C300006A10DA0FFF72EFFF0E70020EEE7000061
:101C40006E6F206368616E67650000004F4B000097
:101C500041542B43574D4F44453D310041542B4394
:101C6000574D4F44453D320041542B43574D4F444F
:101C7000453D330010B54FF48061064800F0A4F9EB
:101C80004FF4FA7002F072F94FF48061014800F0ED
:101C90009DF910BD0000024070B5BCB004460D4671
:101CA0001646ECB12B46012214A11EA8FFF766F8D8
:101CB000324617A16846FFF761F8C823002218A131
:101CC0001EA8FFF7E7FE48B1C823002214A168460A
:101CD000FFF7E0FE10B101203CB070BD0020FBE733
:101CE0002B46002205A11EA8FFF748F8C8230022B2
:101CF0000BA11EA8FFF7CEFEEEE7000041542B43D8
:101D000049505345525645523D25642C25730000D9
:101D100041542B43495053544F3D2573000000005C
:101D20004F4B000000B587B00121880400F00AFD88
:101D30000121082000F0F6FC07220821264800F0C7
:101D400017F907220921244800F012F94FF44070D6
:101D5000059002208DF8180003208DF8190000204E
:101D60008DF81A0001208DF81B0005A91A4800F013
:101D7000B7F84FF4E13001900020ADF80800ADF85D
:101D80000A00ADF80C00ADF810000C20ADF80E0004
:101D900001A9124801F0A6FA012240F225510F488C
:101DA00001F07BFA012240F224410C4801F075FA5F
:101DB00027208DF8000000208DF801008DF802002A
:101DC00001208DF80300684600F064FC01210348FF
:101DD00001F020FA07B000BD000C024000480040AE
:101DE00010B51021064800F0E6F820B90548008833
:101DF000401C04490880102000F022F810BD0000AB
:101E0000001402405400002010B52021084800F0C2
:101E1000D2F848B907480088401C0649088008469F
:101E2000018805A0FEF79EFF202000F009F810BDF4
:101E3000001402405600002025640D0A0000000036
:101E40000149086070470000143C0140002123490B
:101E50008279002A3AD00A46126803689A430B46F0
:101E60001A600A1D126803689A430B1D1A600279F2
:101E700011440A6803681A430A60184A0832126853
:101E800003689A43154B08331A601A1D12680368D9
:101E90009A43124B0C331A604279102A0ED11A1F42
:101EA000126803681A430D4B08331A601A1D126832
:101EB00003681A43094B0C331A600DE00749427955
:101EC00011440A6803681A430A6005E00279114464
:101ED0000A6803689A430A6070470000003C0140AA
:101EE000F0B50A4600210023002400BF3DE0012593
:101EF00005FA01F3156805EA03049C4234D105682C
:101F00004F000326BE40B543056015794E00B5402D
:101F10000668354305601579012D02D01579022D2B
:101F200016D185684F000326BE40B54385605579BC
:101F30004E00B540866835438560456801268E4071
:101F4000B5434560456896798E40B6B235434560E5
:101F5000C5684F000326BE40B543C560D5794E0025
:101F6000B540C6683543C560491C1029BFD3F0BDD4
:101F7000F0B5002300244D07ED0E02FA05F3CE1054
:101F800000F1200555F826504E07F70E0F26BE40EB
:101F9000B543CF1000F1200646F82750CE1000F1CF
:101FA000200555F8265045EA0304CE1000F120051F
:101FB00045F82640F0BD0246002013690B400BB1E6
:101FC000012000E000207047418370470183704783
:101FD0000120094908700949087009490860002072
:101FE0000849C1F884020120054908310860002031
:101FF0000449C1F88C0270473600002035000020EB
:10200000808242420080424202200A4908700A4906
:10201000087000200949086001200949C1F88402BC
:10202000002006490831086001200549C1F88C02EA
:1020300070470000360000203500002080824242B8
:102040000080424201200A490870022009490870B4
:1020500001200949086000200849C1F884020649A6
:102060000831086001200549C1F88C027047000062
:10207000350000203600002080824242008042422B
:1020800070B52DED020B2DED0A8B9DED0B0A10EEB8
:10209000101A084603F076F841EC1B0B9DED0A0A76
:1020A00010EE101A084603F06DF841EC1C0BB0EE70
:1020B0004B1AF0EE6B1AB0EE4C0AF0EE6C0A01F01F
:1020C0002FFDB0EE40AAF0EE60AA9FED410B53EC5D
:1020D000102B51EC1A0B02F093FE41EC190B02F09D
:1020E0002FFB08EE100A9DED0A0A20EE000ADDED36
:1020F0000B0A9DED0B1A00EE810A10EE101A08462D
:1021000003F040F841EC1A0BB0EE4A0AF0EE6A0A0E
:1021100001F0FEFDB0EE409AF0EE609A51EC190B22
:1021200002F00EFB08EE900A2B48D0ED000A88EE74
:10213000200ADFED2A0A20EE200A10EE106A30464F
:1021400003F020F841EC1A0B9FED250B53EC102BFC
:1021500002F058FD41EC190B02F024FD054622481F
:10216000D0ED000A88EEA00ADFED1C0A20EE200A5E
:1021700010EE106A304603F005F841EC1A0B9FEDA3
:10218000180B53EC102B02F03DFD41EC190B02F043
:1021900009FD0446B5EEC08AF1EE10FA06D2B1EEA2
:1021A000480AB0EE408AFFF74DFF01E000F01EF84C
:1021B000A8B201F0DBFEFFF7EBFAFFF709FFA0B2D0
:1021C00001F0D4FEFFF7E4FABDEC0A8B7CBD000001
:1021D00044174154FB21F93F2C00002000007A44B1
:1021E000CDCCCCCCCCCCEC3F3000002001200A4937
:1021F0000870022009490870002009490860012080
:102200000849C1F8840206490831086000200549E0
:10221000C1F88C0270470000360000203500002015
:10222000808242420080424200BFFEE710B500F0CB
:1022300001F810BD00B587B00121480400F082FA12
:102240000121082000F06EFA072206212448FFF73A
:102250008FFE4020059002208DF8180003208DF895
:10226000190000208DF81A0001208DF81B0005A927
:102270001B48FFF735FE4FF4E13001900020ADF828
:102280000800ADF80A00ADF80C00ADF8100004200D
:10229000ADF80E0001A9134801F024F8012240F224
:1022A0002551104800F0F9FF012240F224410D4869
:1022B00000F0F3FF26208DF8000001208DF80100CA
:1022C00000208DF8020001208DF80300684600F020
:1022D000E1F90121034800F09DFF07B000BD0000B7
:1022E000000C0240004400401CB50121202000F0F9
:1022F00019FA4FF4C060009000208DF804008DF8AA
:10230000060002208DF8050001208DF807006946BF
:102310000448FFF7E5FD4FF4C0610248FFF756FEA1
:102320001CBD00000014024000BFFEE71CB50121E7
:10233000202000F0F7F90121082000F0F3F9032232
:1023400006212748FFF714FE032207212448FFF740
:102350000FFEC020009002208DF804008DF80500CB
:1023600000208DF806008DF8070069461C48FFF72D
:10237000B7FD0F20009001208DF8040002208DF899
:10238000050000208DF8060001208DF80700694641
:102390001348FFF7A5FD3020009000208DF80400C1
:1023A00002208DF8050000208DF8060001208DF830
:1023B000070069460A48FFF793FD0F2000900020B0
:1023C0008DF8040002208DF8050000208DF806002D
:1023D00001208DF8070069460248FFF781FD1CBD0A
:1023E00000140240000C024010B52DED068B00F0E9
:1023F000DBF8FFF79BFF00F08FF8002038490860FA
:1024000001203849C1F884020020354908310860AC
:1024100001203449C1F88C024FF4FA7001F0A6FD96
:10242000314890ED000A314880ED000A304890EDC7
:10243000000A304880ED000A2B4890ED000A2C4835
:10244000D0ED000A30EE200A10EE101A084602F015
:1024500099FE41EC1A0B9FED280B53EC102B02F068
:10246000D1FB41EC190B9FED260B53EC102B02F026
:1024700041FA41EC180B02F063F9234908601C484B
:1024800090ED000A1848D0ED000A30EE200A10EE58
:10249000101A084602F076FE41EC1A0B9FED160B5F
:1024A00053EC102B02F0AEFB41EC190B9FED170B18
:1024B00053EC102B02F01EFA41EC180B02F040F91D
:1024C00014490860012006490860091D0860091DBB
:1024D00008600449C1F88C02BDEC068B10BD0000F9
:1024E00080824242008042422000002024000020DE
:1024F0001C00002028000020B81E85EB51B89E3F2C
:10250000EC51B81E85EBC13F2C00002000000000FC
:1025100000000040300000200EB52D208DF808008E
:1025200001208DF8090003208DF80A0001208DF8A4
:102530000B0002A800F0AEF80121880300F012F9A8
:102540000421052000F094F90521084600F090F9D7
:102550003020009000208DF804000C208DF805003C
:1025600001208DF806006846FFF770FC0A208DF800
:10257000080002208DF809008DF80A0001208DF86E
:102580000B0002A800F086F817208DF80800022042
:102590008DF8090003208DF80A0001208DF80B004A
:1025A00002A800F077F80EBD00B589B001214804FB
:1025B00000F0D8F80121880400F0D4F801210802C5
:1025C00000F0C0F85320ADF818000020ADF81A0054
:1025D0004FF4FA7007900020ADF8200006A92948B2
:1025E00000F0BEFC06A9284800F0BAFC6020ADF857
:1025F00004000120ADF806000220ADF8100001A98A
:10260000204800F063FC01A91F4800F05FFC08218E
:102610001C4800F099FC08211B4800F095FC0121A2
:10262000184800F01DFC0121174800F019FC532147
:10263000144800F092FC5321134800F08EFC40F245
:10264000CF70079042F2CF00ADF818000020ADF82F
:102650001A00ADF8200006A90C4800F081FC012208
:1026600011460A4800F028FC0121064800F007FC4A
:102670000121054800F003FC0121044800F0FFFBA4
:1026800009B000BD00440140004801400020004066
:102690007047000070B5002100230F22C4781CB3DE
:1026A000174C246804F4E064C4F5E064C4F3072123
:1026B000C1F10404E3B20A4144789C40E1B2847859
:1026C000144021430C07210E0E4C05786155047807
:1026D00004F01F050124AC4005786D11AD0005F133
:1026E000E025C5F8004109E0047804F01F05012445
:1026F000AC40054D0678761145F8264070BD0000C7
:102700000CED00E000E400E080E100E0024901435C
:10271000024A1160704700000000FA050CED00E06D
:102720007047000029B1064A12680243044B1A6040
:1027300004E0034A12688243014B1A6070470000AC
:102740003038024029B1064A12680243044B1A602D
:1027500004E0034A12688243014B1A60704700008C
:102760004038024029B1064A12680243044B1A60FD
:1027700004E0034A12688243014B1A60704700006C
:1027800044380240F0B50021002200240225002632
:102790000223324F3F6807F00C0121B1042905D014
:1027A000082937D105E02E4F076036E02D4F07602E
:1027B00033E02A4F3F1F3F68C7F38056274F3F1F24
:1027C0003F6807F03F036EB1264FB7FBF3F7DFF822
:1027D0008CC0ACF1040CDCF800C0CCF3881C07FB07
:1027E0000CF40CE01E4FB7FBF3F7DFF870C0ACF150
:1027F000040CDCF800C0CCF3881C07FB0CF4174F6A
:102800003F1F3F68C7F301477F1C7D00B4FBF5F70E
:10281000076002E0124F076000BF00BF0F4F3F6824
:1028200007F0F0010909104F7A5C0768D74047604C
:102830000A4F3F6807F4E051890A0B4F7A5C4768FA
:10284000D7408760054F3F6807F46041490B064F4A
:102850007A5C4768D740C760F0BD00000838024086
:102860000024F40000127A003700002070470000B6
:1028700030B500228B071C0F0F2303FA04F20B4B19
:102880008C1053F824309343084C8D1044F82530B5
:1028900023468C1053F824308C07240F00FA04F4DC
:1028A0002343024C8D1044F8253030BD08380140D8
:1028B0002DE9F0472DED048B05460F469046B8F8FC
:1028C000000006B20024D2E06C4800EB450004EBA7
:1028D0004401490030F81100801B00EE100AB8EEE8
:1028E000C00ADFED670A80EE201A11EE109A484602
:1028F00002F048FC9FED630B53EC102B02F082F9C1
:1029000001F01EFF614A42F834005C4800EB4500CC
:1029100004EB440100EB8100C088801B00EE100A2C
:10292000B8EEC00ADFED560A80EE201A11EE109ABA
:10293000484602F027FC9FED530B53EC102B02F09E
:1029400061F901F0FDFE524A42F834004B4800EBB9
:10295000450004EB440100EB81004088801B00EE41
:10296000100AB8EEC00ADFED460A80EE201A11EE1A
:10297000109A484602F006FC9FED420B53EC102BD8
:1029800002F040F901F0DCFE424A42F834003B48D4
:1029900000EB450004EB440100EB81008088801BC4
:1029A00000EE100AB8EEC00ADFED350A80EE201AFC
:1029B00011EE109A484602F0E5FB9FED320B53EC06
:1029C000102B02F01FF901F0BBFE334A42F834002D
:1029D0002A4800EB450004EB440100EB810000892C
:1029E000801B00EE100AB8EEC00ADFED250A80EE6B
:1029F000201A11EE109A484602F0C4FB9FED210BFD
:102A000053EC102B02F0FEF801F09AFE234A42F834
:102A100034009FED230A6000401C1C4901EB80003C
:102A200080ED000A9FED1E0A6000401C184901EB72
:102A3000800080ED000A9FED1A0A6000401C1549D5
:102A400001EB800080ED000A9FED150A6000401C3C
:102A5000114901EB800080ED000A9FED110A600032
:102A6000401C114601EB800080ED000A641CBC4252
:102A7000FFF62AAFBDEC048BBDE8F0875C000020B8
:102A800000F07F456666666666660A405C60002008
:102A90005C8000205CA000205CC000205CE0002086
:102AA000000000000CB50020019000903448006840
:102AB00040F480303249086000BF3148006800F4BB
:102AC000003000900198401C0190009818B90198BE
:102AD000B0F5A04FF1D12A48006800F4003010B1E1
:102AE0000120009001E0002000900098012846D1CC
:102AF00023484030006840F0805021494031086050
:102B00002048006840F440401E4908601C480830D6
:102B100000681B49083108600846006840F400401E
:102B200008600846006840F4A05008601648091F75
:102B30000860081F006840F08070091F086000BF2F
:102B40000F48006800F000700028F9D040F20570CE
:102B50000E4908600A480830006820F00300084960
:102B6000083108600846006840F00200086000BFB5
:102B700003480830006800F00C000828F8D10CBDAC
:102B8000003802400070004019544007003C0240E9
:102B900010B51EA0FEF7E6F836E02148007838B3FD
:102BA00020A0FEF7DFF825480078072817D2DFE8D5
:102BB00000F01604070A0B101500FFF709FA0FE0E2
:102BC000FFF722FA0CE00BE09FED1D0A00F00AFA75
:102BD00006E09FED1C0A00F005FA01E000E000BFEE
:102BE00000BF002018490860184908700C49087097
:102BF0001648007820B1002014490870FEF7C8FD7F
:102C00001348007800B110BDC7E700007370656518
:102C1000636820776F726B20626567696E0D0A00CA
:102C2000580000206E657720696E73747275637446
:102C3000696F6E20636F6D650D0A0000320501201B
:102C40000000B4C20000B442240400405900002037
:102C50003400002010B5FFF7E9FA42F2CF0141F24B
:102C6000873000F001F810BD7FB505460C46012104
:102C70000220FFF767FD0295ADF804400020ADF893
:102C80000600ADF80C0001A90D4800F069F9012219
:102C900011460B4800F010F90121094800F0EFF847
:102CA0001D208DF8000001208DF8010003208DF813
:102CB000020001208DF803006846FFF7EBFC7FBDA2
:102CC00000040040042808D14FF0E021096941F0D8
:102CD00004014FF0E022116107E04FF0E0210969A3
:102CE00021F004014FF0E0221161704770470000AD
:102CF00010B51548006840F4700013490860134887
:102D0000006840F001001149086000200F490831B7
:102D100008600E4800680E4908400C4908600D48DC
:102D2000091D0860081F006820F48020091F086042
:102D3000002006490C310860FFF7B4FE4FF0006038
:102D400001498039086010BD88ED00E0003802407C
:102D5000FFFFF6FE1030002410B50121054800F0F9
:102D60009AF8012801D1044908700121014800F0B6
:102D700083F810BD000400405900002010B52DED6F
:102D8000068B01212D4800F086F801284ED12C48F1
:102D9000008800EE100AB8EE400AF2EE040A80EE57
:102DA000201A11EE104A204602F0ECF941EC1A0B01
:102DB0009FED240B53EC102B01F09CFD41EC190B03
:102DC0009FED220B53EC102B01F01CFF41EC180B74
:102DD00001F0B6FC1F4908601F48008800EE100A89
:102DE000B8EE400AF2EE040A80EE201A11EE104A04
:102DF000204602F0C7F941EC1A0B9FED120B53EC81
:102E0000102B01F077FD41EC190B9FED100B53ECEB
:102E1000102B01F0F7FE41EC180B01F091FC0F496B
:102E200008600020064908800B49088001210348FA
:102E300000F022F8BDEC068B10BD00000020004021
:102E4000540000209A9999999999C93F441741547F
:102E5000FB2109401C00002056000020200000201B
:102E600021B1028842F08002028004E002884FF61D
:102E70007F731A4002807047CA430282704721B1B3
:102E8000028842F00102028004E002884FF6FE73DD
:102E90001A400280704730B502460020002300240B
:102EA000158A05EA0103958905EA010413B10CB1FD
:102EB000012000E0002030BD1AB183890B438381DB
:102EC00002E083898B4383817047000070B5002442
:102ED00000220023058C4FF6FE7635400584028CD7
:102EE0008388048B4FF68F752C40B51E2C400D88BF
:102EF0002C43751E2A408D892A434D882A43104D44
:102F0000A84202D00F4DA84213D14FF6F7752A40C0
:102F1000CD892A434FF6FB752A408D882A434FF608
:102F2000FF652B404FF6FF552B400D8A2B434D8AF2
:102F30002B43838004838D684563028470BD000049
:102F400000000140000401400A460021018B4FF6B9
:102F5000F7731940114301837047416370470000C4
:102F600000220288184B98420ED0184B98420BD082
:102F7000B0F1804F08D0164B984205D0154B9842BF
:102F800002D0154B984204D14FF68F731A404B88EC
:102F90001A43124B984207D0114B984204D04FF677
:102FA000FF431A400B891A4302804B68C3620B88A7
:102FB0000385054B984202D0044B984201D18B7A8D
:102FC0000386012383827047000001400004014012
:102FD0000004004000080040000C004000100040C9
:102FE0000014004070B52DED068BF0EE408A9FED89
:102FF000240AC8EE800A10EE905A284602F0C2F861
:1030000041EC1A0B9FED1F0B53EC102B01F0FAFD56
:1030100041EC190B01F094FB08EE100AB5EEC08AE2
:10302000F1EE10FA06D2B1EE480AB0EE408AFFF790
:1030300009F801E0FFF7DAF81448D0ED000A88EE4D
:10304000200ADFED130A20EE200A10EE105A28465F
:1030500002F098F841EC1A0B9FED0E0B53EC102B7D
:1030600001F0D0FD41EC190B01F09CFD0446A0B22B
:1030700000F07CFFFEF78CFBBDEC068B70BD000002
:103080000000344344174154FB2109402C00002028
:1030900000007A44CDCCCCCCCCCCEC3F10B540F287
:1030A00025511D4800F0CFF810B31B4800F084F9FB
:1030B000C4B21A48008800F40040C8B91748008814
:1030C00000F4804060B10A2C03D00020134908802E
:1030D00020E01248008840F400401049088019E0C0
:1030E0000D2C06D10D48008840F480400B49088023
:1030F00010E00A480088C0F30D0009490C54074845
:103100000088401C0549088008460088C72801DD62
:103110000020088010BD0000001001404C0000207D
:103120006800012010B540F225510B4800F08BF8E3
:1031300020B1094800F040F90849087040F22441E4
:10314000054800F080F8012802D1034800F034F966
:1031500001200349087010BD0044004032050120E1
:103160005800002010B540F22551244800F06BF8BB
:10317000D8B1224800F020F9C4B22148B0F80004C8
:10318000C0F30E0040F2FF3188420EDA1C49B1F85C
:103190000014C1F30E00411C194AB2F8002461F377
:1031A0000E021749A1F800240C5440F224411348A0
:1031B00000F049F8012820D11148B0F8000420F4AB
:1031C000004000F500400E49A1F800040B4800F053
:1031D000F3F8C4B201200B4908700BA10848FDF7B1
:1031E0007BFE50B90648B0F8000420F400400449C2
:1031F000A1F8000400200349087010BD00480040F9
:1032000030010120340000207465726D696E616CBC
:103210005F00000021B1828942F40052828104E003
:1032200082894DF6FF731A40828170470246002062
:10323000B1F5007F00D100BF13880B400BB1012016
:1032400000E00020704770B50246002400230025EE
:10325000002040F66A16B14200D100BFC1F342150A
:1032600001F01F03012606FA03F3012D02D196890E
:10327000334006E0022D02D1168A334001E0968ADF
:1032800033400C12012606FA04F41688344013B1B8
:103290000CB1012000E0002070BDF0B50346002411
:1032A00000260025002040F66A17B94200D100BF71
:1032B0001846C1F3421401F01F06012707FA06F56C
:1032C000012C01D10C3004E0022C01D1103000E0BF
:1032D00014301AB107682F43076002E00768AF4354
:1032E0000760F0BD2DE9FF4705460E460024A146C4
:1032F00000BFA046B08900B100BF2C8A24F440541E
:10330000F08804432C82AC8941F20C608443B0887D
:1033100031890843718908430443AC81AC8A24F4A1
:103320004074B0890443AC826846FFF72BFA20480A
:10333000854202D01F48854202D1DDF80C9001E0A1
:10334000DDF80890A88900F4004040B109EBC900FD
:1033500000EB091031684900B0FBF1F707E009EB19
:10336000C90000EB091031688900B0FBF1F7642057
:10337000B7FBF0F004012009642101FB1078A88953
:1033800000F4004040B1322000EBC800B0FBF1F087
:1033900000F00700044308E0322000EB081064212D
:1033A000B0FBF1F000F00F0004432C81BDE8FF8773
:1033B000001001400014014001468888C0F3080055
:1033C0007047C1F30802828070470FB470B586B0B1
:1033D00006460CA8019073E00B9800785C281CD17D
:1033E0000B98401C0B9000786E2809D072280FD1E2
:1033F0000D213046FFF7E5FF0B98401C0B900BE0CA
:103400000A213046FFF7DDFF0B98401C0B9003E0CC
:103410000B98401C0B9000BF4BE00B9800782528C0
:1034200040D10B98401C0B900078642818D073286A
:1034300033D1019810C801900BE021783046FFF796
:10344000C0FF00BF80213046FFF7F0FE0028F9D012
:10345000641C20780028F0D10B98401C0B9020E0D1
:10346000019820C801900A2202A9284600F078FF9E
:1034700002AC0BE021783046FFF7A3FF00BF8021AC
:103480003046FFF7D3FE0028F9D0641C20780028CE
:10349000F0D10B98401C0B9003E00B98401C0B9054
:1034A00000BF06E00B9810F8011B0B903046FFF7A9
:1034B00088FF00BF80213046FFF7B8FE0028F9D012
:1034C0000B980078002887D106B070BC5DF814FB1B
:1034D00000BFFEE72DE9F04304460E4600251088A4
:1034E000B2F8028000EB08071088B2F80280A0EB67
:1034F000080C00233FE0002000211AE003EB010844
:1035000008EB48084FEA480834F81880B84509D84D
:1035100003EB010808EB48084FEA480834F8188024
:10352000E04502D200F1010800E0804608F0FF000B
:10353000491C2029E2D310281CDD05F101081FFADF
:1035400088F5032D02DB4FF0010801E04FF0000881
:10355000042902D24FF0010901E04FF0000908EA06
:103560000908B8F1000F05D04FF00108DFF81C90F2
:1035700089F800801033A6F120009842BBD80A2DAC
:1035800002DD0120BDE8F0830020FBE717000020EA
:1035900010B5FDF7EBFF75E09FED3B0A3B4880ED72
:1035A000000A9FED390A80ED010AFEF72FF832205C
:1035B00000F0DCFC40E03649097801EB4101354A76
:1035C00002EB8120344A4FF48071FFF783FF3349C7
:1035D00008703348007828B1FEF7DAF80020304947
:1035E000087010BD2D48007870B108E02C480078B4
:1035F00028B1FEF7CDF8002029490870F1E72948E5
:1036000000780428F2DB1BE026480078401E25499C
:1036100008700846007810B9322000F0A7FC1C485A
:103620000078072805D01A480078401C184908700F
:1036300002E00020164908701A4800780028BAD124
:1036400000BF19A0FDF78EFB114800781A490978D0
:10365000401A00EB40004006040C0F4A4FF4806112
:103660002046FFF725F9154800F03CFC07491348B0
:1036700000F09AFF0548D0ED010A90ED000AFEF730
:10368000FFFC00BF88E70000000000000C000020E5
:10369000150000205C000020020000200100002036
:1036A0003400002014000020566F696365206170AB
:1036B00070656172200A0000170000205C00012084
:1036C00010B5FDF7E9FD0EA11648FFF77EFE16A125
:1036D0001448FFF77AFE4FF4FA7000F047FCFDF74C
:1036E00095FF00BF1D4800780028FBD000201B4933
:1036F00008701B4A4FF47A611A4800F0EFFE10BDC3
:10370000766F696365206C6F63617465207379738C
:1037100074656D20737461727420776F726B0D0A1B
:103720000000000000480040706C65617365206B0C
:10373000656570207175697420666F722073616DA4
:10374000706C696E6720746865206E6F6973655F61
:10375000706172616D7465720D0A000000000020D6
:10376000020000205C00002010B5FEF719FA4FF4AB
:1037700000711848FEF72AFCFEF748F90120FEF711
:103780003FFA00BF14A0FEF723F90028FAD000BFCB
:10379000002215A117A0FEF75BF90028F8D0012040
:1037A000FEF710FA00BF16A217A10120FEF774FA67
:1037B0000028F8D01648B0F800046FF30E00144942
:1037C000A1F800040846B0F8000420F40040A1F875
:1037D000000410BD000002403139322E3136382E3F
:1037E0003132332E3136390073616D727463617218
:1037F00000000000536D61727443617200000000AC
:10380000313830300000000038303830000000001F
:103810003001012003B401984100009850EAC12012
:1038200018BF04204A0D18BF40F0010040F2FF729B
:10383000B2EB515F08BF40F00200012808BF05202D
:1038400002B070470000000070B59B482DED020BE0
:103850002DED068B079D25F00044A04218DC97480B
:10386000844202DC0AD1069840B19DED060BBDEC06
:10387000068B02B0BDE8704000F003BB002DCCBF4A
:103880009FED8F0B9FED900BBDEC068B02B070BDD2
:103890008F48A04215DD8F48A042D8BF4FF0FF34BB
:1038A00058DD9DED060B51EC100BFFF7B3FF04281C
:1038B00008BF00F0FDFA9DED060BBDEC068B02B0D3
:1038C00070BD9DED060B51EC100B00F0B7FCCDE97F
:1038D000060181489FED828BA0423CDD8248A042D8
:1038E0001FDD00249FED82AB9DED060B53EC1A2BE0
:1038F00051EC100B00F056FF9DED060B41EC190B3F
:1039000053EC1A2B51EC100B01F07CF953EC182BF3
:1039100001F04EFB53EC192B00F0ECFFCDE9060152
:1039200049E09DED060B012453EC182B51EC100BD4
:1039300000F038FF9DED060B41EC190B53EC182BF2
:1039400051EC100B01F034FB53EC192B00F0D2FFBB
:10395000CDE906012FE06848A0421FDD02249FED5B
:10396000689B9DED060B53EC192B51EC100B01F0ED
:1039700049F953EC182B00F015FF9DED060B41ECB7
:10398000180B53EC192B51EC100B01F011FB53ECFD
:10399000182B00F0AFFFCDE906010CE09DED060B02
:1039A000032453EC102B9FED580B51EC100B00F03F
:1039B000A1FFCDE906019DED060B53EC102B51EC58
:1039C000100B01F01FF941EC180B53EC182B01F010
:1039D00019F941EC190B4E480621B0EE490AF0EEF8
:1039E000690A784400F0D1F953EC182B51EC100B14
:1039F00001F008F941EC180B4648B0EE490AF0EE28
:103A0000690A0521784400F0C0F953EC192B51ECF8
:103A1000100B01F0F7F841EC100B51EC180B53ECC4
:103A2000102B002C0EDA00F0BDFE9DED061B53ECB2
:103A3000112B01F0E7F89DED061B53EC112B01F063
:103A4000DFF935E000F0AEFE9DED061B53EC112BC7
:103A500001F0D8F841EC100B2F48784400EBC4007B
:103A600090ED001B51EC100B53EC112B01F0A0FA60
:103A70009DED061B53EC112B01F09AFA41EC100B53
:103A80002648784400EBC40090ED001B51EC100B6D
:103A900053EC112B01F0B4F941EC100B002DA2BF37
:103AA000BDEC068B02B070BD51EC100B00F03CFE7B
:103AB00041EC100B01E70000000010440000F07F13
:103AC000182D4454FB21F93F182D4454FB21F9BF14
:103AD0000000DC3F0000203E0000F33F000000003B
:103AE000000000000000F03F0000E63F0000000082
:103AF00000000000000000400080034000000000C3
:103B0000000000000000F83F000000000000F0BFCF
:103B100002A10000B8A0000042A00000FA9F00002F
:103B200070B56B4E2DED040B2DED028B82B0DDF8E0
:103B30001CC0DDE905235C422CF000411C4341EA36
:103B4000D474049D22F00040B44205D86C422C434A
:103B500040EAD474B4420BD99DED061B9DED040BD5
:103B600002B0BDEC028B04B0BDE8704000F093B928
:103B7000ACF14054A4F17F641C430BD0022404EA4E
:103B8000AC7444EAD27405439FED538B9FED542BE4
:103B900007D015E09DED040B51EC100B00F09AF9E5
:103BA00042E0002C11BF012C9DED040B02B0BDECD6
:103BB000028B04BF04B070BD022C38D0032C3BD064
:103BC0000B439FED491B9FED4A0B0AD0B14218D120
:103BD000B04209D121F0804120F08040079105904A
:103BE0000FE0002A15DA10E0434B7B44002C08BF9D
:103BF00093ED000B0DD0012C10D0022C17D0032C0C
:103C00001AD0B0421DD1002A03DAB0EE410AF0EE1C
:103C1000610A02B0BDEC028B04B070BD93ED000BE5
:103C200051EC100B00F080FD41EC100BF1E7B0EE11
:103C3000480AF0EE680AECE7B0EE420AF0EE620ADB
:103C4000E7E7401A00153C28C8BF8DED000B19DCD2
:103C5000BCF1000FBEBF10F13C0F9FED290B8DEDA5
:103C6000000B0FDB9DED060B53EC102B9DED040BB1
:103C700051EC100B00F03EFE00F0E0FA00F02AF9E3
:103C8000CDE90001002C08BF9DED000BC1D0012C37
:103C900010D0022C9FED1C0B53EC102B9DED000B54
:103CA00051EC100B0DD001F083F953EC182B01F0FF
:103CB0007FF9B9E7019880F0004001909DED000B7D
:103CC000A7E701F075F953EC182B01F099F8ABE771
:103CD0000000F07F00000000182D4454FB21094033
:103CE000182D4454FB2109C0182D4454FB21F9BF61
:103CF000182D4454FB21F93F2A9F000000000000CA
:103D00000000000000000000075C143326A6A13C60
:103D100000B52DED048BB0EE409AF0EE609A83B0C2
:103D200051EC190B01F078F841EC180B18EE100A61
:103D300018EE901A8DED008B002818BF0120084363
:103D400020F00040C0F17F6000F1E040C00F14D0CF
:103D500019EE101A19EE900A8DED009B002918BF7C
:103D60000121084320F00040C0F17F6000F1E040F5
:103D7000C00F04BF0120FDF71CF9B0EE480A03B0E4
:103D8000F0EE680ABDEC048B00BD70B504462DED65
:103D9000028B4D1E00EBC500B0EE408AF0EE608A4B
:103DA00090ED000B35F0060017D053EC182B51ECBA
:103DB000100B00F027FF41EC100B6D1E04EBC5004B
:103DC00090ED001B51EC100B53EC112B00F0EAFCB2
:103DD00041EC100B35F00600E7D1022D36D0042D52
:103DE0001CD0062D1CBFBDEC028B70BD53EC182BF4
:103DF00051EC100B00F006FF94ED0A1B53EC112B55
:103E000000F0D0FC53EC182B00F0FCFE94ED081BE6
:103E100053EC112B00F0C6FC41EC100B53EC182BAB
:103E200051EC100B00F0EEFE94ED061B53EC112B41
:103E300000F0B8FC53EC182B00F0E4FE94ED040BFA
:103E400053EC102B00F0AEFC41EC100B53EC182B94
:103E500051EC100B00F0D6FE94ED021B53EC112B2D
:103E600000F0A0FC53EC182B00F0CCFE94ED001BEE
:103E700053EC112B00F096FCBDEC028B41EC100BC7
:103E800070BD10B553EC102B51EC100B00F08AFCF8
:103E900041EC100B10BD10B553EC112B51EC100B75
:103EA00000F080FC41EC100B10BD00000000000091
:103EB0009FED050B10B553EC102B51EC100B00F0DF
:103EC000A1FE41EC100B10BD00000000000000102E
:103ED00000BF704710B541EC100BFFF7B5FC51EC7B
:103EE000100B10BD10B504464FF480620B490C480E
:103EF00000F058F884ED000A4FF480620749094841
:103F000000F050F884ED010A4FF48062064907483A
:103F100000F048F884ED020A10BD00005C6000204B
:103F20005CA000205CC000205C8000205CE00020E1
:103F300010B504466FF00400FEF7C4FEE11704EB71
:103F40005171C1F3C701074A11701046007800EBA8
:103F50004001C1EBC0104FF6FF7101EAC0000249F9
:103F6000088010BD4E0000205000002070B50446AF
:103F70004FF4077094FBF0F0C6B24FF4077094FB57
:103F8000F0F100FB114085B205E04FF4077000F03E
:103F90002FF9701EC6B2002EF7D115B1284600F0D9
:103FA00027F970BD2DE9F04F2DED0C8B91B0074630
:103FB000884615464FF0000B5A46012329460AA8A9
:103FC000FCF726FD5A460123294605A8FCF720FDEB
:103FD00039460AA8FCF7FEFC414605A8FCF7FAFCA6
:103FE0006800109010998800FCF765FE06460024D2
:103FF00035E007EB840090ED000A08EB8400D0ED7B
:10400000000A20EE200A601C07EB8000D0ED000AB9
:10401000601C08EB800090ED001A00EE810A06EBB0
:10402000840080ED000A601C07EB800090ED000A20
:1040300008EB8400D0ED000A20EE200A07EB840094
:10404000D0ED000A601C08EB800090ED001A00EE35
:10405000C10A601C06EB800080ED000AA41CAC4283
:10406000C7DB0F950F9DA800FCF725FE81462A4669
:1040700049463046FCF704F9002452E009EB84007D
:1040800090ED000A10EE101A084601F07BF841ECA2
:104090001D0B9FED540B53EC102B00F083FB41ECF8
:1040A0001B0B06EB840090ED000A10EE101A084678
:1040B00001F068F841EC1C0B53EC1B2B00F01AFCD0
:1040C00041EC1A0B00F03CFB46F8240009EB84009D
:1040D00090ED000A10EE101A084601F053F841EC7A
:1040E0001D0B9FED400B53EC102B00F05BFB41ECE4
:1040F0001B0B601C06EB800090ED000A10EE101AFE
:10410000084601F03FF841EC1C0B53EC1B2B00F070
:10411000F1FB41EC1A0B00F013FB611C46F8210087
:10412000641CAC42AADB4FF0010B01231A4629465E
:104130006846FCF76DFC31466846FCF74BFCDFED4A
:104140002B8A4FF0000A00242BE006EB8400D0ED10
:10415000000AF5EEC00AF1EE10FA04DD06EB840069
:10416000D0ED000A05E006EB8400D0ED000AF1EE88
:10417000600AB0EE600AF4EEC08AF1EE10FA01D2E5
:10418000204600E050468246F4EEC08AF1EE10FA76
:1041900002D2F0EE400A01E0F0EE680AF0EE608A2A
:1041A000A41C6800A042D0DCAA4501DAAA4401E0C0
:1041B000AAEB050AAAEB050000EBD071491000EE4E
:1041C000101AB8EEC09AB0EE498A4846FCF7A2FD34
:1041D0003046FCF79FFDB0EE480A11B0BDEC0C8BE9
:1041E000BDE8F08F3A8C30E28E79453E0000000049
:1041F0000146114A12884A434FF0E0235A610022D7
:104200009A611A46126942F001021A6100BF4FF02A
:10421000E022106900F001021AB100F48032002A95
:10422000F5D04FF0E022126922F001024FF0E023B6
:104230001A6100229A6170475000002082B0CDE9D7
:10424000000121F0004001909DED000B02B051EC07
:10425000100B704700BF054A128802F04002002A86
:10426000F9D0C2B2014B9A807047000000100140A3
:1042700070B504463448B0F80004C00B00285ED086
:10428000002240F225513148FFF707F800202E495F
:10429000B1F80014C1F30E012B4A505460702CA1E8
:1042A0001046FCF719FE051E34D06E7A622E15D02A
:1042B00008DC412E24D04C2E1FD0502E23D0562E59
:1042C00024D117E0662E06D06C2E0AD0722E0BD0A9
:1042D000732E1BD10BE0002020701AE0012020700B
:1042E00017E00220207014E00320207011E0042069
:1042F00020700EE0062020700BE00720207008E000
:104300000820207005E00520207002E009202070C0
:1043100000BF00BF0C48B0F800046FF30E000A495C
:10432000A1F800040846B0F8000420F40040A1F809
:104330000004012240F225510448FEF7AEFF0020A0
:104340000649087070BD000030010120004800409F
:104350007465726D696E616C5F000000340000204E
:10436000F0B503460D461646002729460A2E03D00F
:10437000002008702846F0BD33B9302001F8010B49
:10438000002008702846F6E7002B03DA2D2001F8FC
:10439000010B5B4242F210720DE093FBF2F404B9A0
:1043A00037B104F1300001F8010B04FB123301278F
:1043B0000A2092FBF0F2002AEFDC00200870284669
:1043C000D9E7000008B54FF4A060FEF79FF94FF45D
:1043D000E13000F053F9A820FFF7AAFD31A0FCF767
:1043E000C1FCFDF781FFFFF7BFF9FFF769F9FEF7A1
:1043F00031FCFDF7F9FF04208DF8000001208DF855
:1044000001002A48B0F800046FF30E002749A1F814
:1044100000040846B0F8000420F40040A1F80004AD
:1044200023A0FCF79FFC3BE06846FFF721FF9DF8C7
:104430000100002834D101208DF801009DF8000012
:104440000A2829D2DFE800F005080B0E11141C1F02
:104450002225FDF7BDFD22E0FDF7D6FD1FE0FDF7AB
:10446000F1FD1CE0FDF7C2FE19E0FDF791F916E041
:104470001948D0ED010A90ED000AFDF701FE0EE0AB
:10448000FEF786FB0BE0FFF783F808E0FDF7DAF8AC
:1044900005E0FDF77DF902E0FDF77AF900BF00BF06
:1044A000C2E70000696E69740D0A00003001012046
:1044B000414C4C206D6F64756C652069732072658A
:1044C00061647920626567696E20776F726B212164
:1044D000212121210D0A00000C0000202DE9F04FC0
:1044E00003464FF4C87B91FBFBFE0BFB1E1BBBF18D
:1044F000000F01D0BDE8F08F4FF4C87B91FBFBFAB1
:104500004FF0000C0027002003E033F810B0DC442B
:10451000401C8842F9D3BCFBF0F50026002022E0C5
:104520004FF00009002418E003EB400B3BF814B0F7
:10453000AB4506D903EB400B3BF814B0ABEB050BD6
:1045400005E003EB400B3BF814B0A5EB0B0BD84692
:10455000C84500D9C1464644641CB4F5C87FE3D3BE
:104560004F4400F5C8708842DAD34FEAE17E01EB90
:10457000DE6E4FEA6E1EB6FBFEF6B7FBFAFB158049
:104580004FF4BA7BA2F802B006EB460B0BEBC60B5E
:104590004FF00A0EBBFBFEFBA2F806B04FF0000B7B
:1045A000A2F804B000BFA5E770B52DED088B044656
:1045B0000D4694ED000AB0EE409A94ED010AB0EE7B
:1045C000408A94ED020AF0EE408A29EE090A08EECC
:1045D000A80A08EE480A78EE490A70EEE80AB0EE3A
:1045E000001A60EE810A80EE201AF0EE419A9FEDEB
:1045F000200A68EE000AB0EE001AB0EE480A01EE9A
:10460000290A20EE800A10EE101A084600F0BAFDC2
:1046100041EC1B0B9FED170B53EC102B00F06AF9CC
:1046200041EC1A0B00F08CF8286038EE890AF0EEA5
:10463000000A00EEA90A78EEC90A9FED0D1A60EE95
:10464000810A20EE200A10EE101A084600F09AFDAA
:1046500041EC1B0B9FED070B53EC102B00F04AF9BC
:1046600041EC1A0B00F06CF86860BDEC088B70BD73
:1046700000C8E147333333333333E33F10B588B0F9
:10468000044601210846FEF74DF801211020FEF7EF
:1046900069F8072209212248FDF76AFC07220A214E
:1046A0001F48FDF765FC4FF4C060069002208DF8AE
:1046B0001C008DF81D0000208DF81E0001208DF8D3
:1046C0001F0006A91648FDF70BFC02940020ADF868
:1046D0000C00ADF80E00ADF81000ADF814000C2081
:1046E000ADF8120002A90F48FEF7FCFD01210D48AC
:1046F000FEF790FD012240F225510A48FEF7CDFD5C
:1047000025208DF8040003208DF805008DF80600A3
:1047100001208DF8070001A8FDF7BCFF08B010BD0F
:10472000000002400010014081F00041704780F01D
:104730000040704721F00041704720F00040704772
:1047400021F00042A2F16052B2F5801F01F0004357
:1047500028BFD2F17F6C0BD95FEA001C43EAC2028A
:1047600042EB507018BF704728BF20F0010070471F
:10477000B2F5801FBCBF184670474FEA410C1CF5CC
:10478000001F02D2084600F073BD70B500F0E4FAD5
:1047900000000089FFF7F6BF4FF00040A0F5800051
:1047A0007047000010B591EA030F48BF83F0004343
:1047B00000F10684841A71EB030C05D2121943EB45
:1047C0000C03001B61EB0C01DFF824E14FEA1154EC
:1047D000A4EB135C1EEA430F18BF9EEA445F73D03C
:1047E00023EA0E03DCF1200E21EA045143F4801386
:1047F00032D322FA0CFE10EB0E0023FA0CFE41EB32
:104800000E01CCF1200E03FA0EFE10EB0E0051F15A
:104810000001B1F5801FCCF1200E32D201EB045122
:1048200012FA0EF2BDE8104058BF7047401C38BF66
:104830005FEA420218BF7047002814BF20F0010051
:1048400041F100014FEA410313F5001F38BF7047E3
:10485000A1F1C04100F0CEBA012A43EB0302ACF152
:10486000200CDCF11F0E32BF4FF0000E23FA0CF3C8
:1048700010EB030041EB0451B4EB115FD0D0A1EB7E
:10488000045101F5801149085FEA300001EB045141
:104890000ED350F1000038BF12FA0EFE08D1BDE869
:1048A0001040C9E7401C38BF5FEA4202CAD1C3E7E3
:1048B000BDE810404FEA410313F5001F38BF7047B1
:1048C000A1F1C04100F096BA9EEA445F08D011EA17
:1048D0005E0FBDE8104004BF01F0004100207047AA
:1048E000BDE8104070B500F037FA00BF64FBBE3E73
:1048F0000000E0FF2DE9C04130B4DFF8A0C23CEA7F
:10490000111418BF3CEA131400F0EC8081EA03058F
:104910001CEA111444EAD57418BF1CEA131500F000
:10492000C780A4EB05044FF0004545EAC12145EAE4
:10493000C32341EA505143EA525304F17F74994230
:1049400004F500344FEAC0204FEAC22208BF90426B
:1049500000F09C804FEA13650FF24016765D4FEA37
:10496000134506FB05F7C7F1807706FB07F74FEA0B
:10497000D737A7FB03687642C8F58038A7FB06CE79
:1049800038BFA8F1010807FB08E64FF0000EA6FBB0
:10499000028CE6FB03CEDCF1000CCEF1004E38BFFA
:1049A000AEF1010EA6FB0C584FF000074FF00005CA
:1049B000E6FB0E87A1FB08C6A0FB07CE16EB0E0692
:1049C00045F10005E1FB076515F1E04E7EBFA4F55A
:1049D00080345FEA46066D4116F1800745F1000517
:1049E0004FEA17274FEA066647EA0567A6F1DE4653
:1049F000B6F1805F4FEA15251FD9384624F0010C27
:104A000005EBC471BCF1FE6F01EB0C1102D8F0BCD8
:104A1000BDE8008124425CBF01F5801E9EEAC47F90
:104A200002D4F0BCBDE80081244238D4F0BCA1F12E
:104A3000C041BDE8004100F0DDB94FEAD22242EAB0
:104A400043524FEAD323A7FB02864FEAD02040EA25
:104A5000415007FB03661EEA0E0F4FEAD12105FB0A
:104A6000026658BFA6EB0056B6EB00564FEA520E50
:104A70004EEAC37E18EB0E0E56EB530EBDD518EB67
:104A800002085E417F1C55F10005B6E74FF4801522
:104A90004FF000074FF000064FF00008ADE7F0BC04
:104AA0004FF0000001F1C04101F00041BDE800817C
:104AB00011EA0C1F0CEA131500D00CE013EA0C1FCE
:104AC00000F025804FF00000F0BC81EA030101F006
:104AD0000041BDE80081F0BCBDE8004181EA03016E
:104AE00000F088B9F0BCBDE8004170B500F034F9C1
:104AF000097EFC3E00F007B881EA03014FF0000098
:104B000001F00041704781EA030100F073B9F0BC85
:104B1000BDE800414FF0000021497047FFFDFBF95F
:104B2000F7F5F4F2F0EEEDEBE9E8E6E4E3E1E0DEE0
:104B3000DDDBDAD8D7D5D4D3D1D0CFCDCCCBCAC852
:104B4000C7C6C5C4C2C1C0BFBEBDBCBBBAB9B8B779
:104B5000B6B5B4B3B2B1B0AFAEADACABAAA9A8A86C
:104B6000A7A6A5A4A3A3A2A1A09F9F9E9D9C9C9B3A
:104B70009A999998979796959594939392919190E5
:104B80008F8F8E8E8D8C8C8B8B8A89898888878776
:104B90008685858484838382828181800000FF07EB
:104BA0000000F87F4FEA41034FEA5353A3F58063B7
:104BB000D3F11E03C8BFD3F1210C0CDD4FF000422E
:104BC00042EAC12242EA505232FA03FC8CEAE17C0A
:104BD000ACEBE1707047102BC4BF0020704703F5A9
:104BE000787CBCF1FF3F04D06FF0004282EA2100E4
:104BF000704770B500F0B0F84992248000207047EB
:104C0000F2E70000DFF848C170B51CEA111E1EBFB4
:104C10001CEA13159EEA0C0F95EA0C0F00F06F804A
:104C200081EA030423EA4C134EEAD47E21EA4C11B4
:104C300041F4801143F48013AE44A1FB024CA0FB6D
:104C40000365AEF17F7E361955EB0C05A1FB034CD5
:104C50004CF10003A0FB021C16EB0C06654153F15E
:104C60000003094218BF46F0010613F4007F0BD180
:104C70004FEA03314FEA0530340341EA155140EA67
:104C800016506FF003020AE04FEAC3214FEAC52035
:104C9000F40241EA555140EA56506FF0020202EB2D
:104CA0002E4201EB025585EACE710AD05FEA440C30
:104CB00018BF24F0004450F1000041F1000120EA47
:104CC000D47040F2FE7C624500D270BDA84214BF91
:104CD0004FF080444FF04044002E08BF0024BEF146
:104CE000806FA8BFA1F1C041BDE8704080F2828012
:104CF0004FF0000001F1C04101F0004170479EEA11
:104D00000C0F0CEA131518BF95EA0C0F06D04FF0E4
:104D1000000081EA030E0EF0004170BD00F01CF8A7
:104D20008900013E00F007B800F009B84FEA430CD3
:104D30005FEA5C5C08D081EA030100F05BB84FEAEF
:104D4000410C5FEA5C5CF6D14FF00000014970470E
:104D50000000FF070000F87F0EF1020E2EF0030E98
:104D60005EF8046B364205D4012A43EB030515F5C2
:104D7000001F12D8012841EB010C1CF5001F0CD8B4
:104D80000ED14FEAD17C15F5001F0CEB4C0C0CF149
:104D9000020C08BF4CEBD37C04E04FF0080C01E0A0
:104DA0004FEAD37C0CEB4C0526FA05F606F0070615
:104DB000B6F1040C06D20EEB860CBDE870404CF048
:104DC000010C6047DFE80CF0090B02024FF00041D4
:104DD0004FF00000A1F5002170BD194610460128D2
:104DE00051EB010418BFD4F5001484BF002001F07A
:104DF000004170BD0808A0F500114FEA310170476D
:104E000091EA030F10B581F000413FF5D3AC83F078
:104E1000004300F0D5B800002DE9F04101F5801CF9
:104E2000BCF5001FC0F2A9804FEA115C21EA0C51C9
:104E30000CF1FD0C41F480115FEA5C0C0CF5C07CB8
:104E400001D34000494130A4890241EA90518702D0
:104E50008E0E0A0CA45D04FB04F602FB06F6C6F1F6
:104E60004046A4FB0662F60D46EA422606FB06F41F
:104E7000A4FB01235242C3F1404338BF5B1EA6FB93
:104E800002420024E6FB0324D20B42EA4446A6FB7E
:104E90000623A1FB02E2A3FB07E4E3FB61426442B9
:104EA000C2F1404E38BFAEF1010EA6FB04234FF015
:104EB0000002E6FB0E32A2FB03463400E2FB626412
:104EC000A1FB06E6A4FB07E8E4FB61687642C8F1B3
:104ED000405838BFA8F10108A2FB06E4A3FB08E58F
:104EE000E2FB6854A1FB05E6A7FB04E8E1FB64864E
:104EF00018F1200556F10006A809A8F11B08B10910
:104F000008F03F08B8F10A0F40EA86601CD901EBAF
:104F10000C51BDE8F08100BFFCF5EEE8E2DDD8D32E
:104F2000CFCBC7C3C0BDB9B6B4B1AEACA9A7A5A31A
:104F3000A19F9D9B9A9896959392908F8D8C8B892B
:104F40008887868584838281A0FB006800FB01F24C
:104F500008EB4208B8EB872807D5341858EB010452
:104F6000D5D5401C51F10001D1E7341A78EB01048A
:104F7000CDD4401E71F10001C9E75FEA4C0C5FEA35
:104F80009C5C0DD105D34FF0000001F00041BDE85D
:104F9000F081BDE8F04170B5FFF7DEFE6DDBFFBECE
:104FA000BDE8F0414FF00000004970470000F87F75
:104FB00010B591EA030F48BF83F000433FF5FAAB09
:104FC000841A71EB030C07D212198CF0004C43EBDE
:104FD0000C03001B61EB0C01DFF8A4E14FEA115454
:104FE000A4EB135C1EEA430F18BF9EEA445F00F077
:104FF000B08023EA6E03524221EA0451C3EB6E03F0
:1050000038BF5B1EDCF1200E25D322FA0CFE10EB1C
:105010000E0043FA0CFE41EB0E01CCF1200E03FA18
:105020000EFE10EB0E0051F10001CCF1200E29D440
:1050300012FA0EF201EB0451BDE8104058BF704760
:10504000401C1CBFB2F1004F704700280CBF491C28
:1050500020F00100704712EB020E43EB030218BF71
:105060004FF0010E4EEA4202ACF1200CDCF11E0EB4
:1050700054D943FA0CFE10EB0E0051F1FF31CCF184
:105080001E0ED5D50EF1010E12FA0EFE404141EB77
:10509000010101EB445C5FEA5C5C10D910EBDE704F
:1050A00001EB045138BFBEF1004FBDE8104018BFFE
:1050B000704700280CBF491C20F00100704730D217
:1050C0004FEAD42C11F5001124F400641BD0B1FA7E
:1050D00081F20B3AA41AA41ED2F12003914030FAB7
:1050E00003F31943904001EBCC71002C01EB045108
:1050F000BDE81040A8BF704701F1C0414FF000006B
:1051000001F000417047B0FA80F310FA03F100D1CA
:1051100010BDE41A173C4805C90AE4E701EB045145
:1051200010BD491001EB0451BDE810404FEA3000BA
:1051300002E04FF0000170474A0008BF0042F8D07B
:10514000B2F5001F28BF704701F000414FF000008A
:1051500070479EEA445F07D011EA5E0FBDE8104039
:1051600004BF002100207047BDE8104070B5FFF774
:10517000F3FD00BF40DFF63E83F00041104670476C
:105180000000E0FF43004FEAD30C4FEA3C0C4340E1
:105190001FBF40070CF1605113F0FE4F70471CF029
:1051A000006F03D100200CF0004170470CF0004369
:1051B00043EA507010B540EACC0000F00EF800BF92
:1051C000000000924FEA0001FFF714BE4FF00041CB
:1051D0004FF00000A1F5002170470EF1020E2EF0F5
:1051E000030E5EF8044B244204D44FEA4102B2F1AC
:1051F0007F4F11D84FEA4003B3F17F4F0CD80ED147
:105200004FEAD07CB2F17F4F0CEB4C0C0CF1020C4E
:1052100008BF4CEBD17C04E04FF0080C01E04FEAF2
:10522000D17C0CEB4C0324FA03F404F00704B4F132
:10523000040C06D20EEB840CBDE810404CF0010CBF
:105240006047DFE80CF0070802024FF00040A0F5CD
:10525000800010BD0846420018BFD2F1807288BF9E
:1052600000F0004010BD4FF04070E1EE100A7047B2
:10527000FF2141EAD050C00570470004000200063B
:105280000001000500030007800080048002800602
:1052900080018005800380074000400440024006F2
:1052A0004001400540034007C000C004C002C006E2
:1052B000C001C005C003C007200020042002200652
:1052C0002001200520032007A000A004A002A006C2
:1052D000A001A005A003A0076000600460026006B2
:1052E0006001600560036007E000E004E002E006A2
:1052F000E001E005E003E0071000100410021006D2
:105300001001100510031007900090049002900601
:1053100090019005900390075000500450025006F1
:105320005001500550035007D000D004D002D006E1
:10533000D001D005D003D007300030043002300651
:105340003001300530033007B000B004B002B006C1
:10535000B001B005B003B0077000700470027006B1
:105360007001700570037007F000F004F002F006A1
:10537000F001F005F003F007080008040802080631
:1053800008010805080308078800880488028806C1
:1053900088018805880388074800480448024806B1
:1053A0004801480548034807C800C804C802C806A1
:1053B000C801C805C803C807280028042802280611
:1053C0002801280528032807A800A804A802A80681
:1053D000A801A805A803A807680068046802680671
:1053E0006801680568036807E800E804E802E80661
:1053F000E801E805E803E807180018041802180691
:1054000018011805180318079800980498029806C0
:1054100098019805980398075800580458025806B0
:105420005801580558035807D800D804D802D806A0
:10543000D801D805D803D807380038043802380610
:105440003801380538033807B800B804B802B80680
:10545000B801B805B803B807780078047802780670
:105460007801780578037807F800F804F802F80660
:10547000F801F805F803F807040004040402040620
:1054800004010405040304078400840484028406E0
:1054900084018405840384074400440444024406D0
:1054A0004401440544034407C400C404C402C406C0
:1054B000C401C405C403C407240024042402240630
:1054C0002401240524032407A400A404A402A406A0
:1054D000A401A405A403A407640064046402640690
:1054E0006401640564036407E400E404E402E40680
:1054F000E401E405E403E4071400140414021406B0
:1055000014011405140314079400940494029406DF
:1055100094019405940394075400540454025406CF
:105520005401540554035407D400D404D402D406BF
:10553000D401D405D403D40734003404340234062F
:105540003401340534033407B400B404B402B4069F
:10555000B401B405B403B40774007404740274068F
:105560007401740574037407F400F404F402F4067F
:10557000F401F405F403F4070C000C040C020C060F
:105580000C010C050C030C078C008C048C028C069F
:105590008C018C058C038C074C004C044C024C068F
:1055A0004C014C054C034C07CC00CC04CC02CC067F
:1055B000CC01CC05CC03CC072C002C042C022C06EF
:1055C0002C012C052C032C07AC00AC04AC02AC065F
:1055D000AC01AC05AC03AC076C006C046C026C064F
:1055E0006C016C056C036C07EC00EC04EC02EC063F
:1055F000EC01EC05EC03EC071C001C041C021C066F
:105600001C011C051C031C079C009C049C029C069E
:105610009C019C059C039C075C005C045C025C068E
:105620005C015C055C035C07DC00DC04DC02DC067E
:10563000DC01DC05DC03DC073C003C043C023C06EE
:105640003C013C053C033C07BC00BC04BC02BC065E
:10565000BC01BC05BC03BC077C007C047C027C064E
:105660007C017C057C037C07FC00FC04FC02FC063E
:10567000FC01FC05FC03FC07020002040202020616
:1056800002010205020302078200820482028206EE
:1056900082018205820382074200420442024206DE
:1056A0004201420542034207C200C204C202C206CE
:1056B000C201C205C203C20722002204220222063E
:1056C0002201220522032207A200A204A202A206AE
:1056D000A201A205A203A20762006204620262069E
:1056E0006201620562036207E200E204E202E2068E
:1056F000E201E205E203E2071200120412021206BE
:1057000012011205120312079200920492029206ED
:1057100092019205920392075200520452025206DD
:105720005201520552035207D200D204D202D206CD
:10573000D201D205D203D20732003204320232063D
:105740003201320532033207B200B204B202B206AD
:10575000B201B205B203B20772007204720272069D
:105760007201720572037207F200F204F202F2068D
:10577000F201F205F203F2070A000A040A020A061D
:105780000A010A050A030A078A008A048A028A06AD
:105790008A018A058A038A074A004A044A024A069D
:1057A0004A014A054A034A07CA00CA04CA02CA068D
:1057B000CA01CA05CA03CA072A002A042A022A06FD
:1057C0002A012A052A032A07AA00AA04AA02AA066D
:1057D000AA01AA05AA03AA076A006A046A026A065D
:1057E0006A016A056A036A07EA00EA04EA02EA064D
:1057F000EA01EA05EA03EA071A001A041A021A067D
:105800001A011A051A031A079A009A049A029A06AC
:105810009A019A059A039A075A005A045A025A069C
:105820005A015A055A035A07DA00DA04DA02DA068C
:10583000DA01DA05DA03DA073A003A043A023A06FC
:105840003A013A053A033A07BA00BA04BA02BA066C
:10585000BA01BA05BA03BA077A007A047A027A065C
:105860007A017A057A037A07FA00FA04FA02FA064C
:10587000FA01FA05FA03FA0706000604060206060C
:1058800006010605060306078600860486028606CC
:1058900086018605860386074600460446024606BC
:1058A0004601460546034607C600C604C602C606AC
:1058B000C601C605C603C60726002604260226061C
:1058C0002601260526032607A600A604A602A6068C
:1058D000A601A605A603A60766006604660266067C
:1058E0006601660566036607E600E604E602E6066C
:1058F000E601E605E603E60716001604160216069C
:1059000016011605160316079600960496029606CB
:1059100096019605960396075600560456025606BB
:105920005601560556035607D600D604D602D606AB
:10593000D601D605D603D60736003604360236061B
:105940003601360536033607B600B604B602B6068B
:10595000B601B605B603B60776007604760276067B
:105960007601760576037607F600F604F602F6066B
:10597000F601F605F603F6070E000E040E020E06FB
:105980000E010E050E030E078E008E048E028E068B
:105990008E018E058E038E074E004E044E024E067B
:1059A0004E014E054E034E07CE00CE04CE02CE066B
:1059B000CE01CE05CE03CE072E002E042E022E06DB
:1059C0002E012E052E032E07AE00AE04AE02AE064B
:1059D000AE01AE05AE03AE076E006E046E026E063B
:1059E0006E016E056E036E07EE00EE04EE02EE062B
:1059F000EE01EE05EE03EE071E001E041E021E065B
:105A00001E011E051E031E079E009E049E029E068A
:105A10009E019E059E039E075E005E045E025E067A
:105A20005E015E055E035E07DE00DE04DE02DE066A
:105A3000DE01DE05DE03DE073E003E043E023E06DA
:105A40003E013E053E033E07BE00BE04BE02BE064A
:105A5000BE01BE05BE03BE077E007E047E027E063A
:105A60007E017E057E037E07FE00FE04FE02FE062A
:105A7000FE01FE05FE03FE07010000000000803F5E
:105A800000000000ECFF7F3FD40FC93AB1FF7F3F19
:105A9000C70F493B4EFF7F3FC1CB963BC4FE7F3FC4
:105AA000890FC93B13FE7F3F3053FB3B39FD7F3FDE
:105AB00059CB163C39FC7F3F02ED2F3C11FB7F3F59
:105AC000900E493CC1F97F3F0030623C4AF87F3F6D
:105AD0004B517B3CACF67F3F38398A3CE6F47F3F44
